:03000000020628CD
:0C062800787FE4F6D8FD75815002066F63
:0800030000000A00000A0000E1
:100783001623003F0006005B004F0066006D007DEE
:100793000007007F00670040013D00014000013B6E
:0107A3000055
:10072F00EE7050EFB40800504A90073FF828287336
:10073F0002075702075B02076202076602076D0294
:10074F00077102077802077CC2978002D297C29680
:10075F00C29522C2978002D297D296C29522C29793
:10076F008002D297C296D29522C2978002D297D298
:04077F0096D2952257
:060575008B0A8A0B890CC1
:10057B00780D7C007D007BFF7A0079037E007F087D
:10058B001200DEE53CB43C050540E4F53C853C3B04
:10059B00E540B43C05053DE4F540E53DB41803E406
:1005AB00F53DE53D75F00A120104F50DE53D75F0DD
:1005BB000A12010485F00EE54075F00A120104F5EC
:1005CB0010E54075F00A12010485F011E53B75F05A
:1005DB000A120104F513E53B75F00A12010485F0CC
:1005EB0014E4F515F516740D2516F8E625E024230D
:1005FB00F8E6FC08E6FDE51625E0FFE51533AB0A4A
:10060B00AA0BA90C8F82F583EC8DF012017B0516DA
:0C061B00E516700205156408451570CA4C
:0106270022B0
:100826005389F0438901758CFC758A21C28DD28C5F
:01083600229F
:1006B400E4F580EE7074EF14600C14602414603E52
:1006C400240370668053ED4C6006ED64014C700F9A
:1006D400D3E5229490E52164809481404D803A8052
:1006E40038ED64034C6006ED64044C700FD3E522CE
:1006F4009490E521648094814030801D801BED64DA
:10070400064C6006ED64074C700FD3E5229490E527
:10071400216480948140138000AF05AE0412072F3A
:0B072400EF25E02441F808E6F58022F4
:1001FD00E53960030203E9E53A14605B147003020C
:10020D0002E814700302036C240360030203E9E5A2
:10021D003F64E2453E6008E53F64E4453E70067587
:10022D003900753A01E53F6472453E6008E53F646B
:10023D0074453E7005E4F539F53AE53F64E2453E17
:10024D007005F539753A01E53F6472453E6003026C
:10025D0003E9F539F53A22E53F64E2453E6008E5EC
:10026D003F64E4453E7006753900753A02E53F641A
:10027D0072453E6008E53F6474453E7005E4F5390E
:10028D00F53AE53F6478453E7004F539F53AE53FBA
:10029D0064D2453E7002053DE53F64D8453E70028F
:1002AD00053DE53F64B2453E7011153DC3E53D6426
:1002BD0080948050067418253DF53DE53F64D84582
:1002CD003E60030203E9153DC3E53D648094804023
:1002DD00030203E97418253DF53D22E53F64E2452F
:1002ED003E6008E53F64E4453E7006753900753A99
:1002FD0003E53F6472453E6008E53F6474453E701A
:10030D0005E4F539F53AE53F6478453E7004F53975
:10031D00F53AE53F64D2453E70020540E53F64D8AD
:10032D00453E70020540E53F64B2453E70111540F3
:10033D00C3E540648094805006743C2540F540E54B
:10034D003F64D8453E60030203E91540C3E54064B0
:10035D0080948040030203E9743C2540F54022E57A
:10036D003F64E2453E6008E53F64E4453E70067536
:10037D003900753A01E53F6472453E6008E53F641A
:10038D0074453E7005E4F539F53AE53F6478453E30
:10039D007004F539F53AE53F64D2453E7002053BF0
:1003AD00E53F64D8453E7002053BE53F64B2453EEE
:1003BD007011153BC3E53B648094805006743C2559
:1003CD003BF53BE53F64D8453E7011153BC3E53B1E
:0D03DD00648094805006743C253BF53B2263
:1004B500E4F508F509F539F53AF53C120826120771
:1004C500E61207FDE4F580FB7A00794112057530E7
:1004D5008DFD758CFC758A21C28D0522E522700281
:1004E5000521AE21FF7C007D01120126ED4C702512
:1004F5000509E509AC087002050814FDAF3AAE39E7
:100505001206B4D3E5099407E50864809480400594
:10051500E4F508F509AE21AF227C007D0A1201261B
:10052500ED4C7008FB7A00793E1203EAAE21AF224A
:100535007C007D14120126ED4C70031201FDAE21E5
:10054500AF227C007D32120126ED4C7008FB7A004B
:100555007941120575AE21AF227C037DE812012693
:10056500ED4C60030204D4F521F522053C0204D4C8
:080837003099FDC2998F99224E
:1007FD00759840D29C53890F438920758BFD758D5B
:06080D00FDD299D28E22FB
:1007E60043A0F0D2A4D2A5D2A6D2A7751B00751C31
:0707F600F0E4F519F51A22E9
:1007A70020A4057E007FE02220A5057E007FD022C1
:1007B70020A6057E007FB0227E0020A7037F70223F
:0307C7007FF0229E
:1003EA001207A78E178F18E51960030204ADE51AE4
:1003FA0014602A14602F14604514606C1470030290
:10040A00049F240560030204ADE51864F0451770E3
:10041A00030204AD751900751A010204AD751900BD
:10042A00751A02807EE51864F04517607185171BFE
:10043A0085181C431802751900751A038065E5189A
:10044A0064F045176047051EE51E7002051DD3942A
:10045A0032E51D64809480404AE4F51DF51E431878
:10046A0004F519751A04803BE51864F04517601DF8
:10047A00051EE51E7002051DD3940AE51D648094CD
:10048A00804020E4F51DF51E4318088016751900F2
:10049A00751A05800E431C01851B17851C18E4F587
:0B04AA0019F51AE5178518F002015C37
:0207A400C10092
:100813005389F0438901758CD8758AF0E4F51FD2AA
:030823008C80FEC8
:03000B000207CA1F
:1007CA00C0E0C0D0758CD8758AF0051FE51FB464E7
:0C07DA00066380FF751F00D0D0D0E03215
:100634000204B5E493A3F8E493A34003F68001F223
:1006440008DFF48029E493A3F85407240CC8C333C7
:10065400C4540F4420C8834004F456800146F6DF96
:10066400E4800B0102040810204080900783E47E9C
:10067400019360BCA3FF543F30E509541FFEE4938B
:10068400A360010ECF54C025E060A840B8E493A352
:10069400FAE493A3F8E493A3C8C582C8CAC583CA7D
:1006A400F0A3C8C582C8CAC583CADFE9DEE780BE35
:0107A6000052
:10000E00E709F608DFFA8046E709F208DFFA803ED4
:10001E0088828C83E709F0A3DFFA8032E309F608C1
:10002E00DFFA8078E309F208DFFA807088828C8329
:10003E00E309F0A3DFFA806489828A83E0A3F608DD
:10004E00DFFA805889828A83E0A3F208DFFA804CB7
:10005E0080D280FA80C680D4806980F2803380108E
:10006E0080A680EA809A80A880DA80E280CA8033F7
:10007E0089828A83ECFAE493A3C8C582C8CCC5836F
:10008E00CCF0A3C8C582C8CCC583CCDFE9DEE7803F
:10009E000D89828A83E493A3F608DFF9ECFAA9F0BE
:1000AE00EDFB2289828A83ECFAE0A3C8C582C8CC14
:1000BE00C583CCF0A3C8C582C8CCC583CCDFEADE2D
:1000CE00E880DB89828A83E493A3F208DFF980CC8F
:1000DE0088F0EF60010E4E60C388F0ED2402B40488
:1000EE000050B9F582EB2402B4040050AF2323452F
:0600FE00822390005E73F6
:10010400C2D530F707B2D563F0FF05F030E70CB283
:10011400D5F4048463F0FF05F080018430D502F443
:020124000422B3
:10012600C2D5EC30E709B2D5E4C39DFDE49CFCEEF4
:1001360030E715B2D5E4C39FFFE49EFE1201A8C3C3
:10014600E49DFDE49CFC80031201A830D507C3E4BE
:060156009FFFE49EFE2263
:10015C00BB010A89828A83F0E5F0A3F0225006F7EE
:0F016C0009A7F01922BBFE06F3E5F009F31922EB
:10017B00F8BB0111E58229F582E5833AF583E8F0B6
:10018B00E5F0A3F0225009E92582C8F608A6F02273
:0D019B00BBFE09E92582C8F2E5F008F2225A
:1001A800BC000BBE0029EF8DF084FFADF022E4CC3B
:1001B800F875F008EF2FFFEE33FEEC33FCEE9DEC04
:1001C800984005FCEE9DFE0FD5F0E9E4CEFD22ED4A
:1001D800F8F5F0EE8420D21CFEADF075F008EF2F94
:1001E800FFED33FD4007985006D5F0F222C398FD85
:0501F8000FD5F0EA2222
:00000001FF
