:030000000205D125
:0C05D100787FE4F6D8FD75815002061812
:0800030000000A00000A0000E1
:10072C001623003F0006005B004F0066006D007D45
:10073C000007007F00670040013D00014000013BC5
:01074C0000AC
:1006D800EE7050EFB40800504A9006E8F8282873E6
:1006E80002070002070402070B02070F020716029F
:1006F800071A020721020725C2978002D297C296DD
:10070800C29522C2978002D297D296C29522C297EA
:100718008002D297C296D29522C2978002D297D2EF
:0407280096D29522AE
:06051E008B0A8A0B890C18
:10052400780D7C007D007BFF7A0079037E007F08D4
:100534001200DEE53CB43C050540E4F53C853C3B5B
:10054400E540B43C05053DE4F540E53DB41803E45D
:10055400F53DE53D75F00A120104F50DE53D75F034
:100564000A12010485F00EE54075F00A120104F543
:1005740010E54075F00A12010485F011E53B75F0B1
:100584000A120104F513E53B75F00A12010485F023
:1005940014E4F515F516740D2516F8E625E0242364
:1005A400F8E6FC08E6FDE51625E0FFE51533AB0AA1
:1005B400AA0BA90C8F82F583EC8DF012017B051632
:0C05C400E516700205156408451570CAA4
:0105D0002208
:1007CF005389F0438901758CFC758A21C28DD28CB7
:0107DF0022F7
:10065D00E4F580EE7074EF14600C14602414603EA9
:10066D00240370668053ED4C6006ED64014C700FF1
:10067D00D3E5229490E52164809481404D803A80A9
:10068D0038ED64034C6006ED64044C700FD3E52225
:10069D009490E521648094814030801D801BED6431
:1006AD00064C6006ED64074C700FD3E5229490E57F
:1006BD00216480948140138000AF05AE041206D8EA
:0B06CD00EF25E02441F808E6F580224C
:1001FD00E5396003020392E53A14602D1470030291
:10020D0002AD14700302032124036003020392E57F
:10021D003F64E4453E600BE53F64E2453E6003020A
:10022D000392753900753A0122E53F64E2453E704F
:10023D0005F539753A02E53F6472453E6010E53FBC
:10024D006474453E6008E53F6478453E7005E4F50D
:10025D0039F53AE53F64D2453E7002053DE53F6410
:10026D00D8453E7002053DE53F64B2453E7011151F
:10027D003DC3E53D6480948050067418253DF53DE1
:10028D00E53F64D8453E6003020392153DC3E53D4D
:10029D006480948040030203927418253DF53D223D
:1002AD00E53F64E2453E7005F539753A03E53F6477
:1002BD0072453E6010E53F6474453E6008E53F645D
:1002CD0078453E7005E4F539F53AE53F64D2453E93
:1002DD0070020540E53F64D8453E70020540E53F9C
:1002ED0064B2453E70111540C3E540648094805062
:1002FD0006743C2540F540E53F64D8453E60030259
:10030D0003921540C3E540648094805078743C2579
:10031D0040F54022E53F64E2453E7005F539753AFA
:10032D0001E53F6472453E6010E53F6474453E60F3
:10033D0008E53F6478453E7006753900753A01E56C
:10034D003F64D2453E7002053CE53F64D8453E70A2
:10035D0002053CE53F64B2453E7011153CC3E53CDA
:10036D00648094805006743C253CF53CE53F64D890
:10037D00453E7011153CC3E53C6480948050067475
:06038D003C253CF53C227A
:10045E00E4F508F509F539F53AF53C1207CF120720
:10046E008F1207A6E4F580FB7A00794112051E3043
:10047E008DFD758CFC758A21C28D0522E5227002D8
:10048E000521AE21FF7C007D01120126ED4C702569
:10049E000509E509AC087002050814FDAF3AAE393E
:1004AE0012065DD3E5099407E50864809480400543
:1004BE00E4F508F509AE21AF227C007D0A12012673
:1004CE00ED4C7008FB7A00793E120393AE21AF22F9
:1004DE007C007D0B120126ED4C70031201FDAE2146
:1004EE00AF227C007D32120126ED4C7008FB7A00A3
:1004FE00794112051EAE21AF227C037DE812012642
:10050E00ED4C600302047DF521F522053C02047DCD
:0807E0003099FDC2998F9922A6
:1007A600759840D29C53890F438920758BFD758DB2
:0607B600FDD299D28E2253
:10078F0043A0F0D2A4D2A5D2A6D2A7751B00751C88
:07079F00F0E4F519F51A2240
:1007500020A4057E007FE02220A5057E007FD02218
:1007600020A6057E007FB0227E0020A7037F702296
:030770007FF022F5
:100393001207508E178F18E5196003020456E51AE9
:1003A30014602A14602F14604514606C14700302E7
:1003B300044824056003020456E51864F0451770E9
:1003C30003020456751900751A01020456751900C3
:1003D300751A02807EE51864F04517607185171B56
:1003E30085181C431802751900751A038065E518F2
:1003F30064F045176047051EE51E7002051DD39482
:1004030028E51D64809480404AE4F51DF51E4318D9
:1004130004F519751A04803BE51864F04517601D4F
:10042300051EE51E7002051DD3940AE51D64809424
:10043300804020E4F51DF51E431808801675190049
:10044300751A05800E431C01851B17851C18E4F5DE
:0B04530019F51AE5178518F002015C8E
:02074D00C100E9
:1007BC005389F0438901758CD8758AF0E4F51FD202
:0307CC008C80FE20
:03000B0002077376
:10077300C0E0C0D0758CD8758AF0051FE51FB4643E
:0C078300066380FF751F00D0D0D0E0326C
:1005DD0002045EE493A3F8E493A34003F68001F2D2
:1005ED0008DFF48029E493A3F85407240CC8C3331F
:1005FD00C4540F4420C8834004F456800146F6DFEE
:10060D00E4800B010204081020408090072CE47E4A
:10061D00019360BCA3FF543F30E509541FFEE493E2
:10062D00A360010ECF54C025E060A840B8E493A3A9
:10063D00FAE493A3F8E493A3C8C582C8CAC583CAD4
:10064D00F0A3C8C582C8CAC583CADFE9DEE780BE8C
:01074F0000A9
:10000E00E709F608DFFA8046E709F208DFFA803ED4
:10001E0088828C83E709F0A3DFFA8032E309F608C1
:10002E00DFFA8078E309F208DFFA807088828C8329
:10003E00E309F0A3DFFA806489828A83E0A3F608DD
:10004E00DFFA805889828A83E0A3F208DFFA804CB7
:10005E0080D280FA80C680D4806980F2803380108E
:10006E0080A680EA809A80A880DA80E280CA8033F7
:10007E0089828A83ECFAE493A3C8C582C8CCC5836F
:10008E00CCF0A3C8C582C8CCC583CCDFE9DEE7803F
:10009E000D89828A83E493A3F608DFF9ECFAA9F0BE
:1000AE00EDFB2289828A83ECFAE0A3C8C582C8CC14
:1000BE00C583CCF0A3C8C582C8CCC583CCDFEADE2D
:1000CE00E880DB89828A83E493A3F208DFF980CC8F
:1000DE0088F0EF60010E4E60C388F0ED2402B40488
:1000EE000050B9F582EB2402B4040050AF2323452F
:0600FE00822390005E73F6
:10010400C2D530F707B2D563F0FF05F030E70CB283
:10011400D5F4048463F0FF05F080018430D502F443
:020124000422B3
:10012600C2D5EC30E709B2D5E4C39DFDE49CFCEEF4
:1001360030E715B2D5E4C39FFFE49EFE1201A8C3C3
:10014600E49DFDE49CFC80031201A830D507C3E4BE
:060156009FFFE49EFE2263
:10015C00BB010A89828A83F0E5F0A3F0225006F7EE
:0F016C0009A7F01922BBFE06F3E5F009F31922EB
:10017B00F8BB0111E58229F582E5833AF583E8F0B6
:10018B00E5F0A3F0225009E92582C8F608A6F02273
:0D019B00BBFE09E92582C8F2E5F008F2225A
:1001A800BC000BBE0029EF8DF084FFADF022E4CC3B
:1001B800F875F008EF2FFFEE33FEEC33FCEE9DEC04
:1001C800984005FCEE9DFE0FD5F0E9E4CEFD22ED4A
:1001D800F8F5F0EE8420D21CFEADF075F008EF2F94
:1001E800FFED33FD4007985006D5F0F222C398FD85
:0501F8000FD5F0EA2222
:00000001FF
